{
  "address": "0xfd63d938F82C94a30D940475f572ec10214ed907",
  "abi": [
    {
      "inputs": [],
      "stateMutability": "nonpayable",
      "type": "constructor"
    },
    {
      "anonymous": false,
      "inputs": [
        {
          "indexed": false,
          "internalType": "uint256",
          "name": "auctionId",
          "type": "uint256"
        },
        {
          "indexed": false,
          "internalType": "address",
          "name": "project",
          "type": "address"
        },
        {
          "indexed": false,
          "internalType": "bool",
          "name": "approved",
          "type": "bool"
        }
      ],
      "name": "AuctionApprovalUpdated",
      "type": "event"
    },
    {
      "anonymous": false,
      "inputs": [
        {
          "indexed": false,
          "internalType": "uint256",
          "name": "auctionId",
          "type": "uint256"
        },
        {
          "indexed": false,
          "internalType": "address",
          "name": "project",
          "type": "address"
        }
      ],
      "name": "AuctionCanceled",
      "type": "event"
    },
    {
      "anonymous": false,
      "inputs": [
        {
          "indexed": false,
          "internalType": "uint256",
          "name": "auctionId",
          "type": "uint256"
        },
        {
          "indexed": false,
          "internalType": "address",
          "name": "creator",
          "type": "address"
        },
        {
          "components": [
            {
              "internalType": "address",
              "name": "id",
              "type": "address"
            },
            {
              "internalType": "enum Implementation",
              "name": "implementation",
              "type": "uint8"
            }
          ],
          "indexed": false,
          "internalType": "struct Project",
          "name": "project",
          "type": "tuple"
        },
        {
          "indexed": false,
          "internalType": "uint256",
          "name": "startTimestamp",
          "type": "uint256"
        },
        {
          "indexed": false,
          "internalType": "uint256",
          "name": "duration",
          "type": "uint256"
        },
        {
          "indexed": false,
          "internalType": "uint256",
          "name": "startPrice",
          "type": "uint256"
        },
        {
          "indexed": false,
          "internalType": "uint256",
          "name": "endPrice",
          "type": "uint256"
        },
        {
          "indexed": false,
          "internalType": "uint8",
          "name": "numberOfPriceDrops",
          "type": "uint8"
        },
        {
          "indexed": false,
          "internalType": "address",
          "name": "curator",
          "type": "address"
        },
        {
          "indexed": false,
          "internalType": "uint256",
          "name": "curatorRoyaltyBPS",
          "type": "uint256"
        },
        {
          "indexed": false,
          "internalType": "address",
          "name": "auctionCurrency",
          "type": "address"
        }
      ],
      "name": "AuctionCreated",
      "type": "event"
    },
    {
      "anonymous": false,
      "inputs": [
        {
          "indexed": false,
          "internalType": "uint256",
          "name": "auctionId",
          "type": "uint256"
        },
        {
          "indexed": false,
          "internalType": "address",
          "name": "project",
          "type": "address"
        }
      ],
      "name": "AuctionEnded",
      "type": "event"
    },
    {
      "anonymous": false,
      "inputs": [
        {
          "indexed": false,
          "internalType": "uint256",
          "name": "auctionId",
          "type": "uint256"
        },
        {
          "indexed": false,
          "internalType": "address",
          "name": "project",
          "type": "address"
        },
        {
          "indexed": false,
          "internalType": "bool",
          "name": "giveAway",
          "type": "bool"
        }
      ],
      "name": "CollectorGiveAwayUpdated",
      "type": "event"
    },
    {
      "anonymous": false,
      "inputs": [
        {
          "indexed": false,
          "internalType": "uint256",
          "name": "auctionId",
          "type": "uint256"
        },
        {
          "indexed": false,
          "internalType": "address",
          "name": "project",
          "type": "address"
        },
        {
          "indexed": false,
          "internalType": "uint256",
          "name": "editionId",
          "type": "uint256"
        },
        {
          "indexed": false,
          "internalType": "uint256",
          "name": "price",
          "type": "uint256"
        },
        {
          "indexed": false,
          "internalType": "address",
          "name": "owner",
          "type": "address"
        }
      ],
      "name": "EditionPurchased",
      "type": "event"
    },
    {
      "anonymous": false,
      "inputs": [
        {
          "indexed": false,
          "internalType": "uint256",
          "name": "auctionId",
          "type": "uint256"
        },
        {
          "indexed": false,
          "internalType": "address",
          "name": "project",
          "type": "address"
        },
        {
          "indexed": false,
          "internalType": "uint256",
          "name": "editionId",
          "type": "uint256"
        },
        {
          "indexed": false,
          "internalType": "uint256",
          "name": "seed",
          "type": "uint256"
        },
        {
          "indexed": false,
          "internalType": "uint256",
          "name": "price",
          "type": "uint256"
        },
        {
          "indexed": false,
          "internalType": "address",
          "name": "owner",
          "type": "address"
        }
      ],
      "name": "SeededEditionPurchased",
      "type": "event"
    },
    {
      "inputs": [
        {
          "internalType": "uint256",
          "name": "",
          "type": "uint256"
        }
      ],
      "name": "auctions",
      "outputs": [
        {
          "components": [
            {
              "internalType": "address",
              "name": "id",
              "type": "address"
            },
            {
              "internalType": "enum Implementation",
              "name": "implementation",
              "type": "uint8"
            }
          ],
          "internalType": "struct Project",
          "name": "project",
          "type": "tuple"
        },
        {
          "internalType": "uint256",
          "name": "startTimestamp",
          "type": "uint256"
        },
        {
          "internalType": "uint256",
          "name": "duration",
          "type": "uint256"
        },
        {
          "internalType": "uint256",
          "name": "startPrice",
          "type": "uint256"
        },
        {
          "internalType": "uint256",
          "name": "endPrice",
          "type": "uint256"
        },
        {
          "internalType": "uint8",
          "name": "numberOfPriceDrops",
          "type": "uint8"
        },
        {
          "internalType": "address",
          "name": "creator",
          "type": "address"
        },
        {
          "internalType": "bool",
          "name": "approved",
          "type": "bool"
        },
        {
          "internalType": "address",
          "name": "curator",
          "type": "address"
        },
        {
          "internalType": "uint256",
          "name": "curatorRoyaltyBPS",
          "type": "uint256"
        },
        {
          "internalType": "address",
          "name": "auctionCurrency",
          "type": "address"
        },
        {
          "internalType": "bool",
          "name": "collectorGiveAway",
          "type": "bool"
        }
      ],
      "stateMutability": "view",
      "type": "function"
    },
    {
      "inputs": [
        {
          "internalType": "uint256",
          "name": "auctionId",
          "type": "uint256"
        }
      ],
      "name": "cancelAuction",
      "outputs": [],
      "stateMutability": "nonpayable",
      "type": "function"
    },
    {
      "inputs": [
        {
          "components": [
            {
              "internalType": "address",
              "name": "id",
              "type": "address"
            },
            {
              "internalType": "enum Implementation",
              "name": "implementation",
              "type": "uint8"
            }
          ],
          "internalType": "struct Project",
          "name": "project",
          "type": "tuple"
        },
        {
          "internalType": "uint256",
          "name": "startTimestamp",
          "type": "uint256"
        },
        {
          "internalType": "uint256",
          "name": "duration",
          "type": "uint256"
        },
        {
          "internalType": "uint256",
          "name": "startPrice",
          "type": "uint256"
        },
        {
          "internalType": "uint256",
          "name": "endPrice",
          "type": "uint256"
        },
        {
          "internalType": "uint8",
          "name": "numberOfPriceDrops",
          "type": "uint8"
        },
        {
          "internalType": "address",
          "name": "curator",
          "type": "address"
        },
        {
          "internalType": "uint256",
          "name": "curatorRoyaltyBPS",
          "type": "uint256"
        },
        {
          "internalType": "address",
          "name": "auctionCurrency",
          "type": "address"
        }
      ],
      "name": "createAuction",
      "outputs": [
        {
          "internalType": "uint256",
          "name": "",
          "type": "uint256"
        }
      ],
      "stateMutability": "nonpayable",
      "type": "function"
    },
    {
      "inputs": [
        {
          "internalType": "uint256",
          "name": "auctionId",
          "type": "uint256"
        }
      ],
      "name": "endAuction",
      "outputs": [],
      "stateMutability": "nonpayable",
      "type": "function"
    },
    {
      "inputs": [
        {
          "internalType": "uint256",
          "name": "auctionId",
          "type": "uint256"
        }
      ],
      "name": "getSalePrice",
      "outputs": [
        {
          "internalType": "uint256",
          "name": "",
          "type": "uint256"
        }
      ],
      "stateMutability": "view",
      "type": "function"
    },
    {
      "inputs": [
        {
          "internalType": "uint256",
          "name": "auctionId",
          "type": "uint256"
        }
      ],
      "name": "numberCanMint",
      "outputs": [
        {
          "internalType": "uint256",
          "name": "",
          "type": "uint256"
        }
      ],
      "stateMutability": "view",
      "type": "function"
    },
    {
      "inputs": [
        {
          "internalType": "uint256",
          "name": "auctionId",
          "type": "uint256"
        },
        {
          "internalType": "uint256",
          "name": "value",
          "type": "uint256"
        }
      ],
      "name": "purchase",
      "outputs": [
        {
          "internalType": "uint256",
          "name": "",
          "type": "uint256"
        }
      ],
      "stateMutability": "payable",
      "type": "function"
    },
    {
      "inputs": [
        {
          "internalType": "uint256",
          "name": "auctionId",
          "type": "uint256"
        },
        {
          "internalType": "uint256",
          "name": "value",
          "type": "uint256"
        },
        {
          "internalType": "uint256",
          "name": "seed",
          "type": "uint256"
        }
      ],
      "name": "purchase",
      "outputs": [
        {
          "internalType": "uint256",
          "name": "",
          "type": "uint256"
        }
      ],
      "stateMutability": "payable",
      "type": "function"
    },
    {
      "inputs": [
        {
          "internalType": "uint256",
          "name": "auctionId",
          "type": "uint256"
        },
        {
          "internalType": "bool",
          "name": "approved",
          "type": "bool"
        }
      ],
      "name": "setAuctionApproval",
      "outputs": [],
      "stateMutability": "nonpayable",
      "type": "function"
    },
    {
      "inputs": [
        {
          "internalType": "uint256",
          "name": "auctionId",
          "type": "uint256"
        },
        {
          "internalType": "bool",
          "name": "giveAway",
          "type": "bool"
        }
      ],
      "name": "setCollectorGiveAway",
      "outputs": [],
      "stateMutability": "nonpayable",
      "type": "function"
    }
  ],
  "transactionHash": "0x496103ab7bd9fc2beb119fb4e4cc6baca5fd2641ab9ab75e9118301b79a037c6",
  "args": [],
  "solcInputHash": "d5bd67e6d4ab4d0ce5d910d77dd41d20",
  "bytecode": "0x608060405234801561001057600080fd5b5060016000818155815460ff1916607817909155600280546001600160401b0319166726057e5e2fc51e5a179055612ad490819061004e90396000f3fe6080604052600436106100915760003560e01c806396b5a7551161005957806396b5a75514610156578063973ddb4a146101765780639b8b930514610196578063b9a2de3a146101a9578063f8eb5fc5146101c957600080fd5b80630d5375021461009657806355e91d16146100c9578063571a26a0146100e9578063580471991461012157806370876c9814610143575b600080fd5b3480156100a257600080fd5b506100b66100b1366004612258565b6101e9565b6040519081526020015b60405180910390f35b3480156100d557600080fd5b506100b66100e436600461233d565b61099b565b3480156100f557600080fd5b5061010961010436600461233d565b6109ac565b6040516100c09c9b9a9998979695949392919061270f565b34801561012d57600080fd5b5061014161013c36600461236f565b610a72565b005b6100b661015136600461239f565b610baa565b34801561016257600080fd5b5061014161017136600461233d565b610d7a565b34801561018257600080fd5b5061014161019136600461236f565b610e41565b6100b66101a43660046123c1565b610f01565b3480156101b557600080fd5b506101416101c436600461233d565b6110d3565b3480156101d557600080fd5b506100b66101e436600461233d565b611265565b6000600260005414156102435760405162461bcd60e51b815260206004820152601f60248201527f5265656e7472616e637947756172643a207265656e7472616e742063616c6c0060448201526064015b60405180910390fd5b600260005589516040516301ffc9a760e01b81526001600160a01b03909116906301ffc9a79061027e906380ac58cd60e01b906004016124fd565b60206040518083038186803b15801561029657600080fd5b505afa1580156102aa573d6000803e3d6000fd5b505050506040513d601f19601f820116820180604052508101906102ce919061223b565b61031a5760405162461bcd60e51b815260206004820152601d60248201527f446f65736e277420737570706f7274204e465420696e74657266616365000000604482015260640161023a565b89600001516001600160a01b03166301ffc9a760028c60200151600181111561034557610345612a4f565b60ff166002811061035857610358612a65565b600891828204019190066004029054906101000a900460e01b6040518263ffffffff1660e01b815260040161038d91906124fd565b60206040518083038186803b1580156103a557600080fd5b505afa1580156103b9573d6000803e3d6000fd5b505050506040513d601f19601f820116820180604052508101906103dd919061223b565b61043b5760405162461bcd60e51b815260206004820152602960248201527f446f65736e277420737570706f72742063686f73656e2045646974696f6e7320604482015268696e7465726661636560b81b606482015260840161023a565b60008a600001516001600160a01b0316638da5cb5b6040518163ffffffff1660e01b815260040160206040518083038186803b15801561047a57600080fd5b505afa15801561048e573d6000803e3d6000fd5b505050506040513d601f19601f820116820180604052508101906104b291906121f0565b9050336001600160a01b038216146105165760405162461bcd60e51b815260206004820152602160248201527f43616c6c6572206d7573742062652063726561746f72206f662070726f6a65636044820152601d60fa1b606482015260840161023a565b8a516001600160a01b031660009081526003602052604090205460ff16156105795760405162461bcd60e51b815260206004820152601660248201527541756374696f6e20616c72656164792065786973747360501b604482015260640161023a565b8688116105da5760405162461bcd60e51b815260206004820152602960248201527f5374617274207072696365206d75737420626520686967686572207468656e20604482015268656e6420707269636560b81b606482015260840161023a565b6001600160a01b0385166106445783156106445760405162461bcd60e51b815260206004820152602560248201527f526f79616c7469657320776f756c642062652073656e7420696e746f20746865604482015264081d9bda5960da1b606482015260840161023a565b60015460ff9081169061065a908b90891661136f565b10156106c15760405162461bcd60e51b815260206004820152603060248201527f537465702074696d65206d75737420626520686967686572207468616e206d6960448201526f6e696d75696d20737465702074696d6560801b606482015260840161023a565b60006106cc60055490565b60408051610180810182528e815260208082018f90528183018e9052606082018d9052608082018c905260ff8b1660a08301526001600160a01b0380871660c0840152600060e084018190528b821661010085015261012084018b90528982166101408501526101608401819052858152600483529390932082518051825495166001600160a01b03198616811783559281015195965092949093849283916001600160a81b03191617600160a01b83600181111561078d5761078d612a4f565b021790555050506020820151816001015560408201518160020155606082015181600301556080820151816004015560a08201518160050160006101000a81548160ff021916908360ff16021790555060c08201518160050160016101000a8154816001600160a01b0302191690836001600160a01b0316021790555060e08201518160050160156101000a81548160ff0219169083151502179055506101008201518160060160006101000a8154816001600160a01b0302191690836001600160a01b0316021790555061012082015181600701556101408201518160080160006101000a8154816001600160a01b0302191690836001600160a01b031602179055506101608201518160080160146101000a81548160ff0219169083151502179055509050506001600360008e600001516001600160a01b03166001600160a01b0316815260200190815260200160002060006101000a81548160ff021916908315150217905550610905600580546001019055565b7f0ab5b02a35b88574e5257308ff23f55cf0a18062927a8468abb4a4abe392672681838e8e8e8e8e8e8e8e8e6040516109489b9a999897969594939291906127a9565b60405180910390a16001600160a01b03861615806109775750816001600160a01b0316866001600160a01b0316145b1561098757610987816001611382565b60016000559b9a5050505050505050505050565b60006109a6826113f3565b92915050565b600460209081526000918252604091829020825180840190935280546001600160a01b0381168452909291839190830190600160a01b900460ff1660018111156109f8576109f8612a4f565b6001811115610a0957610a09612a4f565b90525060018201546002830154600384015460048501546005860154600687015460078801546008909801549697959694959394929360ff808416946001600160a01b036101008604811695600160a81b90048316948116939290821691600160a01b9004168c565b81610a7c81611479565b610a985760405162461bcd60e51b815260040161023a90612687565b60008381526004602052604090206005015461010090046001600160a01b03163314610af85760405162461bcd60e51b815260206004820152600f60248201526e26bab9ba1031329031b932b0ba37b960891b604482015260640161023a565b60008381526004602052604090206002810154600190910154610b1a9161149e565b4211610b385760405162461bcd60e51b815260040161023a906125ec565b6000838152600460205260409081902060088101805460ff60a01b1916600160a01b861515021790555490517f6fd26a47d2184b80f16e9adec9a8afc078ed863fcca2408e7ded180907c1fe8691610b9d9186916001600160a01b0316908690612788565b60405180910390a1505050565b600082610bb681611479565b610bd25760405162461bcd60e51b815260040161023a90612687565b6000848152600460205260409020600501548490600160a81b900460ff16610c0c5760405162461bcd60e51b815260040161023a90612650565b600081815260046020526040902060010154421015610c3d5760405162461bcd60e51b815260040161023a906126b6565b610c46816113f3565b610c625760405162461bcd60e51b815260040161023a906126ed565b6000858152600460205260409081902081516101c0810190925280546001600160a01b0381166101808401908152610d7193899390929091839183906101a0840190600160a01b900460ff166001811115610cbf57610cbf612a4f565b6001811115610cd057610cd0612a4f565b905250815260018201546020820152600282015460408201526003820154606082015260048201546080820152600582015460ff80821660a08401526101008083046001600160a01b0390811660c0860152600160a81b9093048216151560e085015260068501548316908401526007840154610120840152600890930154908116610140830152600160a01b9004909116151561016090910152866114aa565b95945050505050565b60008181526004602052604090206005015461010090046001600160a01b0316331480610dc057506000818152600460205260409020600601546001600160a01b031633145b610ddc5760405162461bcd60e51b815260040161023a90612545565b600081815260046020526040902060050154600160a81b900460ff16610e0857610e05816115c9565b50565b6000818152600460205260409020600101544210610e385760405162461bcd60e51b815260040161023a90612619565b610e05816115c9565b81610e4b81611479565b610e675760405162461bcd60e51b815260040161023a90612687565b6000838152600460205260409020600601546001600160a01b03163314610ec25760405162461bcd60e51b815260206004820152600f60248201526e36bab9ba1031329031bab930ba37b960891b604482015260640161023a565b6000838152600460205260409020600101544210610ef25760405162461bcd60e51b815260040161023a90612619565b610efc8383611382565b505050565b600083610f0d81611479565b610f295760405162461bcd60e51b815260040161023a90612687565b6000858152600460205260409020600501548590600160a81b900460ff16610f635760405162461bcd60e51b815260040161023a90612650565b600081815260046020526040902060010154421015610f945760405162461bcd60e51b815260040161023a906126b6565b610f9d816113f3565b610fb95760405162461bcd60e51b815260040161023a906126ed565b6000868152600460205260409081902081516101c0810190925280546001600160a01b03811661018084019081526110c9938a9390929091839183906101a0840190600160a01b900460ff16600181111561101657611016612a4f565b600181111561102757611027612a4f565b905250815260018201546020820152600282015460408201526003820154606082015260048201546080820152600582015460ff80821660a08401526101008083046001600160a01b0390811660c0860152600160a81b9093048216151560e085015260068501548316908401526007840154610120840152600890930154908116610140830152600160a01b9004909116151561016090910152878761161b565b9695505050505050565b60008181526004602052604090206005015461010090046001600160a01b031633148061111957506000818152600460205260409020600601546001600160a01b031633145b6111355760405162461bcd60e51b815260040161023a90612545565b60008181526004602052604090206002810154600190910154611158919061287b565b42116111765760405162461bcd60e51b815260040161023a906125ec565b6000818152600460209081526040918290205482518481526001600160a01b03909116918101919091527fc07789fac136048b605fef8e227ab89b2e33d8afc9ab4817d374197cd81443d691015b60405180910390a1600081815260046020818152604080842080546001600160a01b031685526003808452918520805460ff191690559484529082905283546001600160a81b0319908116855560018501849055600285018490559084018390559083018290556005830180546001600160b01b03191690556006830180546001600160a01b03191690556007830191909155600890910180549091169055565b60008181526004602052604080822081516101c0810190925280546001600160a01b03811661018084019081526109a693929183919083906101a0840190600160a01b900460ff1660018111156112be576112be612a4f565b60018111156112cf576112cf612a4f565b905250815260018201546020820152600282015460408201526003820154606082015260048201546080820152600582015460ff80821660a08401526101008083046001600160a01b0390811660c0860152600160a81b9093048216151560e085015260068501548316908401526007840154610120840152600890930154908116610140830152600160a01b9004909116151561016090910152611748565b600061137b8284612893565b9392505050565b6000828152600460205260409081902060058101805460ff60a81b1916600160a81b851515021790555490517fb46f4988335ad625129457eeb1dce85f43960baf55c208c4e6be1b4402af5926916113e79185916001600160a01b0316908590612788565b60405180910390a15050565b6000818152600460208181526040808420548151630b65b6e760e01b815291516001600160a01b0390911693630b65b6e7938382019390929190829003018186803b15801561144157600080fd5b505afa158015611455573d6000803e3d6000fd5b505050506040513d601f19601f820116820180604052508101906109a69190612356565b60009081526004602052604090206005015461010090046001600160a01b0316151590565b600061137b828461287b565b60008083516020015160018111156114c4576114c4612a4f565b1461150c5760405162461bcd60e51b8152602060048201526018602482015277135d5cdd0818994819591a5d1a5bdb8818dbdb9d1c9858dd60421b604482015260640161023a565b8261016001511561152857611521848461181c565b905061137b565b600061153384611748565b9050808310156115555760405162461bcd60e51b815260040161023a906125a9565b80156115655761156584826118ab565b600061157085611b79565b8551519091507f3b5be13d7b673ab2c83e47fbc1a6d95e5fc7d57e478d7abfd73273188d161bfd9087906115a56001856129b1565b85336040516115b895949392919061281b565b60405180910390a195945050505050565b6000818152600460209081526040918290205482518481526001600160a01b03909116918101919091527fba33dc9262f66e0a69a8a68054f2854b0d6285e694329da40d476180689d417f91016111c4565b60006001845160200151600181111561163657611636612a4f565b146116835760405162461bcd60e51b815260206004820152601f60248201527f4d757374206265207365656465642065646974696f6e20636f6e747261637400604482015260640161023a565b6000846101600151156116a35761169b868685611c41565b915050611740565b60006116ae86611748565b9050808510156116d05760405162461bcd60e51b815260040161023a906125a9565b80156116e0576116e086826118ab565b6116ea8685611cd4565b8651519092507fcf544d7f920ceb7c58a055148ea2bd2cbd5e81b4f1281be6050ecf26fb4bf91190889061171f6001866129b1565b87853360405161173496959493929190612847565b60405180910390a15090505b949350505050565b60006117658260400151836020015161149e90919063ffffffff16565b42111561177457506080015190565b600061177f83611dd5565b6020840151909150611791908261149e565b4210156117a15750506060015190565b60006117ba846020015142611df590919063ffffffff16565b905060006117d2836117cc8486611e01565b9061136f565b905060006117df86611e1a565b905060006117fb6117f08385611e42565b606089015190611df5565b90506118118161180c846002611e4e565b611e01565b979650505050505050565b80515160009061182c9033611e96565b6118485760405162461bcd60e51b815260040161023a9061257c565b600061185383611b79565b8351519091507f3b5be13d7b673ab2c83e47fbc1a6d95e5fc7d57e478d7abfd73273188d161bfd9085906118886001856129b1565b60003360405161189c95949392919061281b565b60405180910390a19392505050565b6101408201516040516370a0823160e01b81526000906001600160a01b038316906370a08231906118e0903090600401612444565b60206040518083038186803b1580156118f857600080fd5b505afa15801561190c573d6000803e3d6000fd5b505050506040513d601f19601f820116820180604052508101906119309190612356565b90506119476001600160a01b038316333086611f1d565b6040516370a0823160e01b81526000906001600160a01b038416906370a0823190611976903090600401612444565b60206040518083038186803b15801561198e57600080fd5b505afa1580156119a2573d6000803e3d6000fd5b505050506040513d601f19601f820116820180604052508101906119c69190612356565b9050806119d3858461287b565b14611a5b5760405162461bcd60e51b815260206004820152604c60248201527f5f68616e646c65496e636f6d696e675472616e7366657220746f6b656e20747260448201527f616e736665722063616c6c20646964206e6f74207472616e736665722065787060648201526b1958dd195908185b5bdd5b9d60a21b608482015260a40161023a565b84515160405163152a902d60e11b815260006004820181905260248201879052916001600160a01b031690632a55205a90604401604080518083038186803b158015611aa657600080fd5b505afa158015611aba573d6000803e3d6000fd5b505050506040513d601f19601f82011682018060405250810190611ade919061220d565b506101008701519091506001600160a01b0316611b0e57611b096001600160a01b0385168287611f8e565b611b71565b6000611b2e6127106117cc89610120015189611e4290919063ffffffff16565b610100880151909150611b4c906001600160a01b0387169083611f8e565b6000611b588783611df5565b9050611b6e6001600160a01b0387168483611f8e565b50505b505050505050565b604080516001808252818301909252600091829190602080830190803683370190505090503381600081518110611bb257611bb2612a65565b6001600160a01b039283166020918202929092010152835151604051630f6a934960e01b8152911690630f6a934990611bef908490600401612458565b602060405180830381600087803b158015611c0957600080fd5b505af1158015611c1d573d6000803e3d6000fd5b505050506040513d601f19601f8201168201806040525081019061137b9190612356565b815151600090611c519033611e96565b611c6d5760405162461bcd60e51b815260040161023a9061257c565b6000611c798484611cd4565b8451519091507fcf544d7f920ceb7c58a055148ea2bd2cbd5e81b4f1281be6050ecf26fb4bf911908690611cae6001856129b1565b86600033604051611cc496959493929190612847565b60405180910390a1949350505050565b604080516001808252818301909252600091829190816020015b6040805180820190915260008082526020820152815260200190600190039081611cee5790505090506040518060400160405280336001600160a01b031681526020018481525081600081518110611d4857611d48612a65565b6020908102919091010152835151604051637c904a7560e11b81526001600160a01b039091169063f92094ea90611d839084906004016124a5565b602060405180830381600087803b158015611d9d57600080fd5b505af1158015611db1573d6000803e3d6000fd5b505050506040513d601f19601f820116820180604052508101906117409190612356565b60006109a68260a0015160ff16836040015161136f90919063ffffffff16565b600061137b82846129b1565b600080611e0e8484611fbe565b905061174081856129b1565b60006109a68260a0015160ff166117cc84608001518560600151611df590919063ffffffff16565b600061137b8284612992565b600080611e5a84611fca565b905080611e6b5760009150506109a6565b82811080611e77575082155b15611e8157600192505b611e8b83826129b1565b61174090600a6128ea565b600080836001600160a01b03166370a08231846040518263ffffffff1660e01b8152600401611ec59190612444565b60206040518083038186803b158015611edd57600080fd5b505afa158015611ef1573d6000803e3d6000fd5b505050506040513d601f19601f82011682018060405250810190611f159190612356565b119392505050565b6040516001600160a01b0380851660248301528316604482015260648101829052611f889085906323b872dd60e01b906084015b60408051601f198184030181529190526020810180516001600160e01b03166001600160e01b031990931692909217909152612002565b50505050565b6040516001600160a01b038316602482015260448101829052610efc90849063a9059cbb60e01b90606401611f51565b600061137b8284612a0f565b600081611fd957506000919050565b60005b82156109a65780611fec816129f4565b9150611ffb9050600a84612893565b9250611fdc565b6000612057826040518060400160405280602081526020017f5361666545524332303a206c6f772d6c6576656c2063616c6c206661696c6564815250856001600160a01b03166120d49092919063ffffffff16565b805190915015610efc5780806020019051810190612075919061223b565b610efc5760405162461bcd60e51b815260206004820152602a60248201527f5361666545524332303a204552433230206f7065726174696f6e20646964206e6044820152691bdd081cdd58d8d9595960b21b606482015260840161023a565b6060611740848460008585843b61212d5760405162461bcd60e51b815260206004820152601d60248201527f416464726573733a2063616c6c20746f206e6f6e2d636f6e7472616374000000604482015260640161023a565b600080866001600160a01b031685876040516121499190612428565b60006040518083038185875af1925050503d8060008114612186576040519150601f19603f3d011682016040523d82523d6000602084013e61218b565b606091505b5091509150611811828286606083156121a557508161137b565b8251156121b55782518084602001fd5b8160405162461bcd60e51b815260040161023a9190612512565b80356121da81612a7b565b919050565b803560ff811681146121da57600080fd5b60006020828403121561220257600080fd5b815161137b81612a7b565b6000806040838503121561222057600080fd5b825161222b81612a7b565b6020939093015192949293505050565b60006020828403121561224d57600080fd5b815161137b81612a90565b6000806000806000806000806000898b0361014081121561227857600080fd5b604081121561228657600080fd5b506040516040810181811067ffffffffffffffff821117156122b857634e487b7160e01b600052604160045260246000fd5b6040528a356122c681612a7b565b815260208b0135600281106122da57600080fd5b6020820152985060408a0135975060608a0135965060808a0135955060a08a0135945061230960c08b016121df565b935061231760e08b016121cf565b92506101008a0135915061232e6101208b016121cf565b90509295985092959850929598565b60006020828403121561234f57600080fd5b5035919050565b60006020828403121561236857600080fd5b5051919050565b6000806040838503121561238257600080fd5b82359150602083013561239481612a90565b809150509250929050565b600080604083850312156123b257600080fd5b50508035926020909101359150565b6000806000606084860312156123d657600080fd5b505081359360208301359350604090920135919050565b80516001600160a01b0316825260208101516002811061241d57634e487b7160e01b600052602160045260246000fd5b806020840152505050565b6000825161243a8184602087016129c8565b9190910192915050565b6001600160a01b0391909116815260200190565b6020808252825182820181905260009190848201906040850190845b818110156124995783516001600160a01b031683529284019291840191600101612474565b50909695505050505050565b602080825282518282018190526000919060409081850190868401855b828110156124f057815180516001600160a01b031685528601518685015292840192908501906001016124c2565b5091979650505050505050565b6001600160e01b031991909116815260200190565b60208152600082518060208401526125318160408501602087016129c8565b601f01601f19169190910160400192915050565b6020808252601a908201527f4d7573742062652063726561746f72206f722063757261746f72000000000000604082015260600190565b60208082526013908201527226bab9ba10313290309031b7b63632b1ba37b960691b604082015260600190565b60208082526023908201527f4d757374206265206d6f7265206f7220657175616c20746f2073616c6520707260408201526269636560e81b606082015260800190565b60208082526013908201527220bab1ba34b7b71034b9903737ba1037bb32b960691b604082015260600190565b6020808252601b908201527f41756374696f6e2068617320616c726561647920737461727465640000000000604082015260600190565b6020808252601d908201527f41756374696f6e20686173206e6f74206265656e20617070726f766564000000604082015260600190565b602080825260159082015274105d58dd1a5bdb88191bd95cdb89dd08195e1a5cdd605a1b604082015260600190565b6020808252601b908201527f41756374696f6e20686173206e6f742073746172746564207965740000000000604082015260600190565b60208082526008908201526714dbdb19081bdd5d60c21b604082015260600190565b6101a0810161271e828f6123ed565b604082019c909c52606081019a909a5260808a019890985260a089019690965260ff9490941660c08801526001600160a01b0392831660e0880152901515610100870152811661012086015261014085019190915216610160830152151561018090910152919050565b9283526001600160a01b039190911660208301521515604082015260600190565b8b81526001600160a01b038b811660208301526101808201906127cf604084018d6123ed565b8a60808401528960a08401528860c08401528760e084015260ff871661010084015280861661012084015284610140840152808416610160840152509c9b505050505050505050505050565b9485526001600160a01b0393841660208601526040850192909252606084015216608082015260a00190565b9586526001600160a01b0394851660208701526040860193909352606085019190915260808401521660a082015260c00190565b6000821982111561288e5761288e612a23565b500190565b6000826128a2576128a2612a39565b500490565b600181815b808511156128e25781600019048211156128c8576128c8612a23565b808516156128d557918102915b93841c93908002906128ac565b509250929050565b600061137b8383600082612900575060016109a6565b8161290d575060006109a6565b8160018114612923576002811461292d57612949565b60019150506109a6565b60ff84111561293e5761293e612a23565b50506001821b6109a6565b5060208310610133831016604e8410600b841016171561296c575081810a6109a6565b61297683836128a7565b806000190482111561298a5761298a612a23565b029392505050565b60008160001904831182151516156129ac576129ac612a23565b500290565b6000828210156129c3576129c3612a23565b500390565b60005b838110156129e35781810151838201526020016129cb565b83811115611f885750506000910152565b6000600019821415612a0857612a08612a23565b5060010190565b600082612a1e57612a1e612a39565b500690565b634e487b7160e01b600052601160045260246000fd5b634e487b7160e01b600052601260045260246000fd5b634e487b7160e01b600052602160045260246000fd5b634e487b7160e01b600052603260045260246000fd5b6001600160a01b0381168114610e0557600080fd5b8015158114610e0557600080fdfea2646970667358221220d6aad3a47baa84dc1cb0b8e4fa8beb82b8e80b3fe2294435dd342b1181cdfe2d64736f6c63430008060033",
  "devdoc": {
    "kind": "dev",
    "methods": {
      "cancelAuction(uint256)": {
        "details": "the caller must be creator or curator and the auction must either not of started yet or not been approved by the curator",
        "params": {
          "auctionId": "the id of the auction"
        }
      },
      "createAuction((address,uint8),uint256,uint256,uint256,uint256,uint8,address,uint256,address)": {
        "details": "Store the auction details in the auctions mapping and emit an AuctionCreated event. If there is no curator, or if the curator is the auction creator, automatically approve the auction and emit an AuctionApproved event.",
        "params": {
          "curator": "the address of the allocated curator",
          "curatorRoyaltyBPS": "the royalty the curator will recieve per purchase in basis points",
          "duration": "the duration the auction will run for",
          "endPrice": "the price in eth the auction will end at",
          "numberOfPriceDrops": "the number of times the price will drop between starting and ending price",
          "project": "the contract address and implementation of which NFT's will be minted",
          "startPrice": "the price in eth the auction will start at",
          "startTimestamp": "the time the auction will start"
        },
        "returns": {
          "_0": "auction id"
        }
      },
      "getSalePrice(uint256)": {
        "details": "calculates the price based on the block.timestamp",
        "params": {
          "auctionId": "the id of the auction"
        },
        "returns": {
          "_0": "price in wei"
        }
      },
      "purchase(uint256,uint256)": {
        "details": "mints a NFT and splits purchase fee between creator and curator",
        "params": {
          "auctionId": "the id of the auction",
          "value": "the amount paid in erc-20 tokens to mint"
        },
        "returns": {
          "_0": "id of the NFT"
        }
      },
      "purchase(uint256,uint256,uint256)": {
        "details": "mints a seeded NFT and splits purchase fee between creator and curator",
        "params": {
          "auctionId": "the id of the auction",
          "seed": "the seed of the NFT to mint",
          "value": "the amount paid in erc-20 tokens to mint"
        },
        "returns": {
          "_0": "id of the NFT"
        }
      },
      "setAuctionApproval(uint256,bool)": {
        "details": "sets auction approved to approval and emits an AuctionApprovalUpdated event",
        "params": {
          "approved": "the curators approval decision",
          "auctionId": "the id of the auction"
        }
      },
      "setCollectorGiveAway(uint256,bool)": {
        "details": "sets auction collectorGiveAway to giveAway and emits an CollectorGiveAwayUpdated event",
        "params": {
          "auctionId": "the id of the auction",
          "giveAway": "the creators giveAway decision"
        }
      }
    },
    "title": "A dutch auction house, for initial drops of projects",
    "version": 1
  },
  "userdoc": {
    "kind": "user",
    "methods": {
      "cancelAuction(uint256)": {
        "notice": "allows creator or curator to cancel an auction before it's started"
      },
      "constructor": {
        "notice": "Constructor"
      },
      "createAuction((address,uint8),uint256,uint256,uint256,uint256,uint8,address,uint256,address)": {
        "notice": "Create an auction."
      },
      "getSalePrice(uint256)": {
        "notice": "gets the current sale price of an auction"
      },
      "setAuctionApproval(uint256,bool)": {
        "notice": "allows curator to approve auction"
      },
      "setCollectorGiveAway(uint256,bool)": {
        "notice": "allows the creator to trigger a collector only give away once an auction is over"
      }
    },
    "version": 1
  },
  "storageLayout": {
    "storage": [
      {
        "astId": 10,
        "contract": "contracts/DutchAuctionDrop.sol:DutchAuctionDrop",
        "label": "_status",
        "offset": 0,
        "slot": "0",
        "type": "t_uint256"
      },
      {
        "astId": 1194,
        "contract": "contracts/DutchAuctionDrop.sol:DutchAuctionDrop",
        "label": "minStepTime",
        "offset": 0,
        "slot": "1",
        "type": "t_uint8"
      },
      {
        "astId": 1201,
        "contract": "contracts/DutchAuctionDrop.sol:DutchAuctionDrop",
        "label": "projectImplentaion_interfaceIds",
        "offset": 0,
        "slot": "2",
        "type": "t_array(t_bytes4)2_storage"
      },
      {
        "astId": 1205,
        "contract": "contracts/DutchAuctionDrop.sol:DutchAuctionDrop",
        "label": "hasActiveAuction",
        "offset": 0,
        "slot": "3",
        "type": "t_mapping(t_address,t_bool)"
      },
      {
        "astId": 1210,
        "contract": "contracts/DutchAuctionDrop.sol:DutchAuctionDrop",
        "label": "auctions",
        "offset": 0,
        "slot": "4",
        "type": "t_mapping(t_uint256,t_struct(Auction)1910_storage)"
      },
      {
        "astId": 1213,
        "contract": "contracts/DutchAuctionDrop.sol:DutchAuctionDrop",
        "label": "_auctionIdTracker",
        "offset": 0,
        "slot": "5",
        "type": "t_struct(Counter)760_storage"
      }
    ],
    "types": {
      "t_address": {
        "encoding": "inplace",
        "label": "address",
        "numberOfBytes": "20"
      },
      "t_array(t_bytes4)2_storage": {
        "base": "t_bytes4",
        "encoding": "inplace",
        "label": "bytes4[2]",
        "numberOfBytes": "32"
      },
      "t_bool": {
        "encoding": "inplace",
        "label": "bool",
        "numberOfBytes": "1"
      },
      "t_bytes4": {
        "encoding": "inplace",
        "label": "bytes4",
        "numberOfBytes": "4"
      },
      "t_enum(Implementation)1878": {
        "encoding": "inplace",
        "label": "enum Implementation",
        "numberOfBytes": "1"
      },
      "t_mapping(t_address,t_bool)": {
        "encoding": "mapping",
        "key": "t_address",
        "label": "mapping(address => bool)",
        "numberOfBytes": "32",
        "value": "t_bool"
      },
      "t_mapping(t_uint256,t_struct(Auction)1910_storage)": {
        "encoding": "mapping",
        "key": "t_uint256",
        "label": "mapping(uint256 => struct IDutchAuctionDrop.Auction)",
        "numberOfBytes": "32",
        "value": "t_struct(Auction)1910_storage"
      },
      "t_struct(Auction)1910_storage": {
        "encoding": "inplace",
        "label": "struct IDutchAuctionDrop.Auction",
        "members": [
          {
            "astId": 1887,
            "contract": "contracts/DutchAuctionDrop.sol:DutchAuctionDrop",
            "label": "project",
            "offset": 0,
            "slot": "0",
            "type": "t_struct(Project)1884_storage"
          },
          {
            "astId": 1889,
            "contract": "contracts/DutchAuctionDrop.sol:DutchAuctionDrop",
            "label": "startTimestamp",
            "offset": 0,
            "slot": "1",
            "type": "t_uint256"
          },
          {
            "astId": 1891,
            "contract": "contracts/DutchAuctionDrop.sol:DutchAuctionDrop",
            "label": "duration",
            "offset": 0,
            "slot": "2",
            "type": "t_uint256"
          },
          {
            "astId": 1893,
            "contract": "contracts/DutchAuctionDrop.sol:DutchAuctionDrop",
            "label": "startPrice",
            "offset": 0,
            "slot": "3",
            "type": "t_uint256"
          },
          {
            "astId": 1895,
            "contract": "contracts/DutchAuctionDrop.sol:DutchAuctionDrop",
            "label": "endPrice",
            "offset": 0,
            "slot": "4",
            "type": "t_uint256"
          },
          {
            "astId": 1897,
            "contract": "contracts/DutchAuctionDrop.sol:DutchAuctionDrop",
            "label": "numberOfPriceDrops",
            "offset": 0,
            "slot": "5",
            "type": "t_uint8"
          },
          {
            "astId": 1899,
            "contract": "contracts/DutchAuctionDrop.sol:DutchAuctionDrop",
            "label": "creator",
            "offset": 1,
            "slot": "5",
            "type": "t_address"
          },
          {
            "astId": 1901,
            "contract": "contracts/DutchAuctionDrop.sol:DutchAuctionDrop",
            "label": "approved",
            "offset": 21,
            "slot": "5",
            "type": "t_bool"
          },
          {
            "astId": 1903,
            "contract": "contracts/DutchAuctionDrop.sol:DutchAuctionDrop",
            "label": "curator",
            "offset": 0,
            "slot": "6",
            "type": "t_address"
          },
          {
            "astId": 1905,
            "contract": "contracts/DutchAuctionDrop.sol:DutchAuctionDrop",
            "label": "curatorRoyaltyBPS",
            "offset": 0,
            "slot": "7",
            "type": "t_uint256"
          },
          {
            "astId": 1907,
            "contract": "contracts/DutchAuctionDrop.sol:DutchAuctionDrop",
            "label": "auctionCurrency",
            "offset": 0,
            "slot": "8",
            "type": "t_address"
          },
          {
            "astId": 1909,
            "contract": "contracts/DutchAuctionDrop.sol:DutchAuctionDrop",
            "label": "collectorGiveAway",
            "offset": 20,
            "slot": "8",
            "type": "t_bool"
          }
        ],
        "numberOfBytes": "288"
      },
      "t_struct(Counter)760_storage": {
        "encoding": "inplace",
        "label": "struct Counters.Counter",
        "members": [
          {
            "astId": 759,
            "contract": "contracts/DutchAuctionDrop.sol:DutchAuctionDrop",
            "label": "_value",
            "offset": 0,
            "slot": "0",
            "type": "t_uint256"
          }
        ],
        "numberOfBytes": "32"
      },
      "t_struct(Project)1884_storage": {
        "encoding": "inplace",
        "label": "struct Project",
        "members": [
          {
            "astId": 1880,
            "contract": "contracts/DutchAuctionDrop.sol:DutchAuctionDrop",
            "label": "id",
            "offset": 0,
            "slot": "0",
            "type": "t_address"
          },
          {
            "astId": 1883,
            "contract": "contracts/DutchAuctionDrop.sol:DutchAuctionDrop",
            "label": "implementation",
            "offset": 20,
            "slot": "0",
            "type": "t_enum(Implementation)1878"
          }
        ],
        "numberOfBytes": "32"
      },
      "t_uint256": {
        "encoding": "inplace",
        "label": "uint256",
        "numberOfBytes": "32"
      },
      "t_uint8": {
        "encoding": "inplace",
        "label": "uint8",
        "numberOfBytes": "1"
      }
    }
  }
}