{
  "address": "0xF4baA49b69EA15107d78AD097d2457cDF470E25B",
  "abi": [
    {
      "inputs": [],
      "stateMutability": "nonpayable",
      "type": "constructor"
    },
    {
      "anonymous": false,
      "inputs": [
        {
          "indexed": false,
          "internalType": "uint256",
          "name": "auctionId",
          "type": "uint256"
        },
        {
          "indexed": false,
          "internalType": "address",
          "name": "editionContract",
          "type": "address"
        },
        {
          "indexed": false,
          "internalType": "bool",
          "name": "approved",
          "type": "bool"
        }
      ],
      "name": "AuctionApprovalUpdated",
      "type": "event"
    },
    {
      "anonymous": false,
      "inputs": [
        {
          "indexed": false,
          "internalType": "uint256",
          "name": "auctionId",
          "type": "uint256"
        },
        {
          "indexed": false,
          "internalType": "address",
          "name": "creator",
          "type": "address"
        },
        {
          "components": [
            {
              "internalType": "address",
              "name": "id",
              "type": "address"
            },
            {
              "internalType": "enum Implementation",
              "name": "implementation",
              "type": "uint8"
            }
          ],
          "indexed": false,
          "internalType": "struct Edition",
          "name": "edition",
          "type": "tuple"
        },
        {
          "indexed": false,
          "internalType": "uint256",
          "name": "startTimestamp",
          "type": "uint256"
        },
        {
          "indexed": false,
          "internalType": "uint256",
          "name": "duration",
          "type": "uint256"
        },
        {
          "indexed": false,
          "internalType": "uint256",
          "name": "startPrice",
          "type": "uint256"
        },
        {
          "indexed": false,
          "internalType": "uint256",
          "name": "endPrice",
          "type": "uint256"
        },
        {
          "indexed": false,
          "internalType": "uint8",
          "name": "numberOfPriceDrops",
          "type": "uint8"
        },
        {
          "indexed": false,
          "internalType": "address",
          "name": "curator",
          "type": "address"
        },
        {
          "indexed": false,
          "internalType": "uint256",
          "name": "curatorRoyaltyBPS",
          "type": "uint256"
        },
        {
          "indexed": false,
          "internalType": "address",
          "name": "auctionCurrency",
          "type": "address"
        }
      ],
      "name": "AuctionCreated",
      "type": "event"
    },
    {
      "anonymous": false,
      "inputs": [
        {
          "indexed": false,
          "internalType": "uint256",
          "name": "auctionId",
          "type": "uint256"
        },
        {
          "indexed": false,
          "internalType": "address",
          "name": "tokenContract",
          "type": "address"
        },
        {
          "indexed": false,
          "internalType": "uint256",
          "name": "tokenId",
          "type": "uint256"
        },
        {
          "indexed": false,
          "internalType": "uint256",
          "name": "price",
          "type": "uint256"
        },
        {
          "indexed": false,
          "internalType": "address",
          "name": "owner",
          "type": "address"
        }
      ],
      "name": "EditionPurchased",
      "type": "event"
    },
    {
      "anonymous": false,
      "inputs": [
        {
          "indexed": false,
          "internalType": "uint256",
          "name": "auctionId",
          "type": "uint256"
        },
        {
          "indexed": false,
          "internalType": "address",
          "name": "tokenContract",
          "type": "address"
        },
        {
          "indexed": false,
          "internalType": "uint256",
          "name": "tokenId",
          "type": "uint256"
        },
        {
          "indexed": false,
          "internalType": "uint256",
          "name": "seed",
          "type": "uint256"
        },
        {
          "indexed": false,
          "internalType": "uint256",
          "name": "price",
          "type": "uint256"
        },
        {
          "indexed": false,
          "internalType": "address",
          "name": "owner",
          "type": "address"
        }
      ],
      "name": "SeededEditionPurchased",
      "type": "event"
    },
    {
      "inputs": [
        {
          "internalType": "uint256",
          "name": "",
          "type": "uint256"
        }
      ],
      "name": "auctions",
      "outputs": [
        {
          "components": [
            {
              "internalType": "address",
              "name": "id",
              "type": "address"
            },
            {
              "internalType": "enum Implementation",
              "name": "implementation",
              "type": "uint8"
            }
          ],
          "internalType": "struct Edition",
          "name": "edition",
          "type": "tuple"
        },
        {
          "internalType": "uint256",
          "name": "startTimestamp",
          "type": "uint256"
        },
        {
          "internalType": "uint256",
          "name": "duration",
          "type": "uint256"
        },
        {
          "internalType": "uint256",
          "name": "startPrice",
          "type": "uint256"
        },
        {
          "internalType": "uint256",
          "name": "endPrice",
          "type": "uint256"
        },
        {
          "internalType": "uint8",
          "name": "numberOfPriceDrops",
          "type": "uint8"
        },
        {
          "internalType": "address",
          "name": "creator",
          "type": "address"
        },
        {
          "components": [
            {
              "internalType": "uint256",
              "name": "price",
              "type": "uint256"
            },
            {
              "internalType": "uint256",
              "name": "time",
              "type": "uint256"
            }
          ],
          "internalType": "struct Step",
          "name": "step",
          "type": "tuple"
        },
        {
          "internalType": "bool",
          "name": "approved",
          "type": "bool"
        },
        {
          "internalType": "address",
          "name": "curator",
          "type": "address"
        },
        {
          "internalType": "uint256",
          "name": "curatorRoyaltyBPS",
          "type": "uint256"
        },
        {
          "internalType": "address",
          "name": "auctionCurrency",
          "type": "address"
        }
      ],
      "stateMutability": "view",
      "type": "function"
    },
    {
      "inputs": [
        {
          "components": [
            {
              "internalType": "address",
              "name": "id",
              "type": "address"
            },
            {
              "internalType": "enum Implementation",
              "name": "implementation",
              "type": "uint8"
            }
          ],
          "internalType": "struct Edition",
          "name": "edition",
          "type": "tuple"
        },
        {
          "internalType": "uint256",
          "name": "startTimestamp",
          "type": "uint256"
        },
        {
          "internalType": "uint256",
          "name": "duration",
          "type": "uint256"
        },
        {
          "internalType": "uint256",
          "name": "startPrice",
          "type": "uint256"
        },
        {
          "internalType": "uint256",
          "name": "endPrice",
          "type": "uint256"
        },
        {
          "internalType": "uint8",
          "name": "numberOfPriceDrops",
          "type": "uint8"
        },
        {
          "internalType": "address",
          "name": "curator",
          "type": "address"
        },
        {
          "internalType": "uint256",
          "name": "curatorRoyaltyBPS",
          "type": "uint256"
        },
        {
          "internalType": "address",
          "name": "auctionCurrency",
          "type": "address"
        }
      ],
      "name": "createAuction",
      "outputs": [
        {
          "internalType": "uint256",
          "name": "",
          "type": "uint256"
        }
      ],
      "stateMutability": "nonpayable",
      "type": "function"
    },
    {
      "inputs": [
        {
          "internalType": "uint256",
          "name": "auctionId",
          "type": "uint256"
        }
      ],
      "name": "getSalePrice",
      "outputs": [
        {
          "internalType": "uint256",
          "name": "",
          "type": "uint256"
        }
      ],
      "stateMutability": "view",
      "type": "function"
    },
    {
      "inputs": [
        {
          "internalType": "uint256",
          "name": "auctionId",
          "type": "uint256"
        }
      ],
      "name": "numberCanMint",
      "outputs": [
        {
          "internalType": "uint256",
          "name": "",
          "type": "uint256"
        }
      ],
      "stateMutability": "view",
      "type": "function"
    },
    {
      "inputs": [
        {
          "internalType": "uint256",
          "name": "auctionId",
          "type": "uint256"
        },
        {
          "internalType": "uint256",
          "name": "value",
          "type": "uint256"
        }
      ],
      "name": "purchase",
      "outputs": [
        {
          "internalType": "uint256",
          "name": "",
          "type": "uint256"
        }
      ],
      "stateMutability": "payable",
      "type": "function"
    },
    {
      "inputs": [
        {
          "internalType": "uint256",
          "name": "auctionId",
          "type": "uint256"
        },
        {
          "internalType": "uint256",
          "name": "value",
          "type": "uint256"
        },
        {
          "internalType": "uint256",
          "name": "seed",
          "type": "uint256"
        }
      ],
      "name": "purchase",
      "outputs": [
        {
          "internalType": "uint256",
          "name": "",
          "type": "uint256"
        }
      ],
      "stateMutability": "payable",
      "type": "function"
    },
    {
      "inputs": [
        {
          "internalType": "uint256",
          "name": "auctionId",
          "type": "uint256"
        },
        {
          "internalType": "bool",
          "name": "approved",
          "type": "bool"
        }
      ],
      "name": "setAuctionApproval",
      "outputs": [],
      "stateMutability": "nonpayable",
      "type": "function"
    }
  ],
  "transactionHash": "0xa64a550cd3faee9f563925740ce51d151d4173cdc6d6f42c22bd6b8ae0e28a91",
  "args": [],
  "solcInputHash": "a6de12d183bb5b1c43c08d6dca852edf",
  "bytecode": "0x608060405234801561001057600080fd5b5060016000818155815460ff1916607817909155600280546001600160401b0319166726057e5e2fc51e5a179055611f0c90819061004e90396000f3fe6080604052600436106100605760003560e01c80630d5375021461006557806355e91d1614610098578063571a26a0146100b857806370876c98146100f0578063973ddb4a146101035780639b8b930514610125578063f8eb5fc514610138575b600080fd5b34801561007157600080fd5b506100856100803660046118cc565b610158565b6040519081526020015b60405180910390f35b3480156100a457600080fd5b506100856100b33660046119b1565b61084a565b3480156100c457600080fd5b506100d86100d33660046119b1565b61085b565b60405161008f9c9b9a99989796959493929190611ca7565b6100856100fe366004611a13565b610931565b34801561010f57600080fd5b5061012361011e3660046119e3565b610bf0565b005b610085610133366004611a35565b610ce5565b34801561014457600080fd5b506100856101533660046119b1565b610fea565b6000600260005414156101b25760405162461bcd60e51b815260206004820152601f60248201527f5265656e7472616e637947756172643a207265656e7472616e742063616c6c0060448201526064015b60405180910390fd5b600260005589516040516301ffc9a760e01b81526001600160a01b03909116906301ffc9a7906101ed906380ac58cd60e01b90600401611b5d565b60206040518083038186803b15801561020557600080fd5b505afa158015610219573d6000803e3d6000fd5b505050506040513d601f19601f8201168201806040525081019061023d91906118af565b6102895760405162461bcd60e51b815260206004820152601d60248201527f446f65736e277420737570706f7274204e465420696e7465726661636500000060448201526064016101a9565b89600001516001600160a01b03166301ffc9a760028c6020015160018111156102b4576102b4611e84565b60ff16600281106102c7576102c7611e9a565b600891828204019190066004029054906101000a900460e01b6040518263ffffffff1660e01b81526004016102fc9190611b5d565b60206040518083038186803b15801561031457600080fd5b505afa158015610328573d6000803e3d6000fd5b505050506040513d601f19601f8201168201806040525081019061034c91906118af565b6103aa5760405162461bcd60e51b815260206004820152602960248201527f446f65736e277420737570706f72742063686f73656e2045646974696f6e7320604482015268696e7465726661636560b81b60648201526084016101a9565b60008a600001516001600160a01b0316638da5cb5b6040518163ffffffff1660e01b815260040160206040518083038186803b1580156103e957600080fd5b505afa1580156103fd573d6000803e3d6000fd5b505050506040513d601f19601f820116820180604052508101906104219190611892565b9050336001600160a01b038216146104865760405162461bcd60e51b815260206004820152602260248201527f43616c6c6572206d7573742062652063726561746f72206f662065646974696f6044820152616e7360f01b60648201526084016101a9565b8688116104e75760405162461bcd60e51b815260206004820152602960248201527f5374617274207072696365206d75737420626520686967686572207468656e20604482015268656e6420707269636560b81b60648201526084016101a9565b6001600160a01b0385166105515783156105515760405162461bcd60e51b815260206004820152602560248201527f526f79616c7469657320776f756c642062652073656e7420696e746f20746865604482015264081d9bda5960da1b60648201526084016101a9565b600061055f8a8a8a8a610ff5565b600154602082015191925060ff1611156105d45760405162461bcd60e51b815260206004820152603060248201527f537465702074696d65206d75737420626520686967686572207468616e206d6960448201526f6e696d75696d20737465702074696d6560801b60648201526084016101a9565b60006105df60045490565b90506040518061018001604052808e81526020018d81526020018c81526020018b81526020018a81526020018960ff168152602001846001600160a01b03168152602001838152602001600015158152602001886001600160a01b03168152602001878152602001866001600160a01b03168152506003600083815260200190815260200160002060008201518160000160008201518160000160006101000a8154816001600160a01b0302191690836001600160a01b0316021790555060208201518160000160146101000a81548160ff021916908360018111156106c7576106c7611e84565b021790555050506020828101516001838101919091556040840151600284015560608401516003840155608084015160048085019190915560a085015160058501805460c088015160ff9093166001600160a81b0319918216176101006001600160a01b0394851681029190911790925560e088015180516006890155909501516007870155808701516008870180546101208a01519716610100600160a81b0319921515929092169190911795831690910294909417909355610140850151600985015561016090940151600a90930180546001600160a01b0319169390921692909217905581540190557f0ab5b02a35b88574e5257308ff23f55cf0a18062927a8468abb4a4abe392672681848f8f8f8f8f8f8f8f8f6040516107f69b9a99989796959493929190611d44565b60405180910390a16001600160a01b03871615806108255750826001600160a01b0316876001600160a01b0316145b1561083557610835816001611051565b60016000559c9b505050505050505050505050565b6000610855826110c4565b92915050565b600360209081526000918252604091829020825180840190935280546001600160a01b0381168452909291839190830190600160a01b900460ff1660018111156108a7576108a7611e84565b60018111156108b8576108b8611e84565b9052506001820154600283015460038401546004850154600586015460408051808201909152600688015481526007880154602082015260088801546009890154600a909901549798969795969495939460ff808516956001600160a01b0361010096879004811696928516949290920482169291168c565b60008261093d81611149565b6109595760405162461bcd60e51b81526004016101a990611c1f565b600084815260036020526040902060080154849060ff1661098c5760405162461bcd60e51b81526004016101a990611be8565b6000818152600360205260409020600101544210156109bd5760405162461bcd60e51b81526004016101a990611c4e565b6109c6816110c4565b6109e25760405162461bcd60e51b81526004016101a990611c85565b60008086815260036020526040902054600160a01b900460ff166001811115610a0d57610a0d611e84565b14610a555760405162461bcd60e51b8152602060048201526018602482015277135d5cdd0818994819591a5d1a5bdb8818dbdb9d1c9858dd60421b60448201526064016101a9565b6000610a608661116e565b905080851015610a825760405162461bcd60e51b81526004016101a990611ba5565b8015610a9257610a92868261129c565b604080516001808252818301909252600091602080830190803683370190505090503381600081518110610ac857610ac8611e9a565b6001600160a01b03928316602091820292909201810191909152600089815260039091526040808220549051630f6a934960e01b815291921690630f6a934990610b16908590600401611ab8565b602060405180830381600087803b158015610b3057600080fd5b505af1158015610b44573d6000803e3d6000fd5b505050506040513d601f19601f82011682018060405250810190610b6891906119ca565b90506000610b77826001611543565b60008a8152600360209081526040918290205482518d81526001600160a01b0390911691810191909152908101829052606081018690523360808201529091507f3b5be13d7b673ab2c83e47fbc1a6d95e5fc7d57e478d7abfd73273188d161bfd9060a00160405180910390a150979650505050505050565b81610bfa81611149565b610c165760405162461bcd60e51b81526004016101a990611c1f565b60008381526003602052604090206008015461010090046001600160a01b03163314610c765760405162461bcd60e51b815260206004820152600f60248201526e36bab9ba1031329031bab930ba37b960891b60448201526064016101a9565b6000838152600360205260409020600101544210610cd65760405162461bcd60e51b815260206004820152601b60248201527f41756374696f6e2068617320616c72656164792073746172746564000000000060448201526064016101a9565b610ce08383611051565b505050565b600083610cf181611149565b610d0d5760405162461bcd60e51b81526004016101a990611c1f565b600085815260036020526040902060080154859060ff16610d405760405162461bcd60e51b81526004016101a990611be8565b600081815260036020526040902060010154421015610d715760405162461bcd60e51b81526004016101a990611c4e565b610d7a816110c4565b610d965760405162461bcd60e51b81526004016101a990611c85565b6001600087815260036020526040902054600160a01b900460ff166001811115610dc257610dc2611e84565b14610e0f5760405162461bcd60e51b815260206004820152601f60248201527f4d757374206265207365656465642065646974696f6e20636f6e74726163740060448201526064016101a9565b6000610e1a8761116e565b905080861015610e3c5760405162461bcd60e51b81526004016101a990611ba5565b8015610e4c57610e4c878261129c565b604080516001808252818301909252600091816020015b6040805180820190915260008082526020820152815260200190600190039081610e635790505090506040518060400160405280336001600160a01b031681526020018781525081600081518110610ebd57610ebd611e9a565b602090810291909101810191909152600089815260039091526040808220549051637c904a7560e11b81526001600160a01b039091169063f92094ea90610f08908590600401611b05565b602060405180830381600087803b158015610f2257600080fd5b505af1158015610f36573d6000803e3d6000fd5b505050506040513d601f19601f82011682018060405250810190610f5a91906119ca565b90506000610f69826001611543565b60008b8152600360209081526040918290205482518e81526001600160a01b0390911691810191909152908101829052606081018a9052608081018690523360a08201529091507fcf544d7f920ceb7c58a055148ea2bd2cbd5e81b4f1281be6050ecf26fb4bf9119060c00160405180910390a15098975050505050505050565b60006108558261116e565b6040805180820190915260008082526020820152604080518082019091526000808252602082015261103460ff841661102e8787611543565b90611556565b81526110438660ff8516611556565b602082015295945050505050565b60008281526003602090815260409182902060088101805485151560ff199091168117909155905483518681526001600160a01b03909116928101929092528183015290517fb46f4988335ad625129457eeb1dce85f43960baf55c208c4e6be1b4402af59269181900360600190a15050565b6000818152600360209081526040808320548151630b65b6e760e01b815291516001600160a01b0390911692630b65b6e79260048082019391829003018186803b15801561111157600080fd5b505afa158015611125573d6000803e3d6000fd5b505050506040513d601f19601f8201168201806040525081019061085591906119ca565b60009081526003602052604090206005015461010090046001600160a01b0316151590565b6000818152600360205260408120600281015460019091015461119091611562565b4211156111ad575060009081526003602052604090206004015490565b600082815260036020526040902060078101546001909101546111cf91611562565b4210156111ed57506000908152600360208190526040909120015490565b60008281526003602052604081206001015461120a904290611543565b6000848152600360205260408120600701549192509061122b90839061156e565b6000858152600360205260408120600701549192509061124f9061102e8585611543565b905061129361127a611262600184611e01565b6000888152600360205260409020600601549061157a565b6000878152600360208190526040909120015490611543565b95945050505050565b600082815260036020526040808220600a015490516370a0823160e01b81523060048201526001600160a01b03909116919082906370a082319060240160206040518083038186803b1580156112f157600080fd5b505afa158015611305573d6000803e3d6000fd5b505050506040513d601f19601f8201168201806040525081019061132991906119ca565b90506113406001600160a01b038316333086611586565b6040516370a0823160e01b81523060048201526000906001600160a01b038416906370a082319060240160206040518083038186803b15801561138257600080fd5b505afa158015611396573d6000803e3d6000fd5b505050506040513d601f19601f820116820180604052508101906113ba91906119ca565b9050806113c78584611db6565b1461144f5760405162461bcd60e51b815260206004820152604c60248201527f5f68616e646c65496e636f6d696e675472616e7366657220746f6b656e20747260448201527f616e736665722063616c6c20646964206e6f74207472616e736665722065787060648201526b1958dd195908185b5bdd5b9d60a21b608482015260a4016101a9565b60008581526003602052604090206008015461010090046001600160a01b03166114a6576000858152600360205260409020600501546114a1906001600160a01b0385811691610100900416866115f7565b61153c565b6000858152600360205260408120600901546114cb906127109061102e90889061157a565b6000878152600360205260409020600801549091506114fc906001600160a01b0386811691610100900416836115f7565b60006115088683611543565b600088815260036020526040902060050154909150611539906001600160a01b0387811691610100900416836115f7565b50505b5050505050565b600061154f8284611e01565b9392505050565b600061154f8284611dce565b600061154f8284611db6565b600061154f8284611e44565b600061154f8284611de2565b6040516001600160a01b03808516602483015283166044820152606481018290526115f19085906323b872dd60e01b906084015b60408051601f198184030181529190526020810180516001600160e01b03166001600160e01b031990931692909217909152611627565b50505050565b6040516001600160a01b038316602482015260448101829052610ce090849063a9059cbb60e01b906064016115ba565b600061167c826040518060400160405280602081526020017f5361666545524332303a206c6f772d6c6576656c2063616c6c206661696c6564815250856001600160a01b03166116f99092919063ffffffff16565b805190915015610ce0578080602001905181019061169a91906118af565b610ce05760405162461bcd60e51b815260206004820152602a60248201527f5361666545524332303a204552433230206f7065726174696f6e20646964206e6044820152691bdd081cdd58d8d9595960b21b60648201526084016101a9565b60606117088484600085611710565b949350505050565b6060824710156117715760405162461bcd60e51b815260206004820152602660248201527f416464726573733a20696e73756666696369656e742062616c616e636520666f6044820152651c8818d85b1b60d21b60648201526084016101a9565b843b6117bf5760405162461bcd60e51b815260206004820152601d60248201527f416464726573733a2063616c6c20746f206e6f6e2d636f6e747261637400000060448201526064016101a9565b600080866001600160a01b031685876040516117db9190611a9c565b60006040518083038185875af1925050503d8060008114611818576040519150601f19603f3d011682016040523d82523d6000602084013e61181d565b606091505b509150915061182d828286611838565b979650505050505050565b6060831561184757508161154f565b8251156118575782518084602001fd5b8160405162461bcd60e51b81526004016101a99190611b72565b803561187c81611eb0565b919050565b803560ff8116811461187c57600080fd5b6000602082840312156118a457600080fd5b815161154f81611eb0565b6000602082840312156118c157600080fd5b815161154f81611ec8565b6000806000806000806000806000898b036101408112156118ec57600080fd5b60408112156118fa57600080fd5b506040516040810181811067ffffffffffffffff8211171561192c57634e487b7160e01b600052604160045260246000fd5b6040528a3561193a81611eb0565b815260208b01356002811061194e57600080fd5b6020820152985060408a0135975060608a0135965060808a0135955060a08a0135945061197d60c08b01611881565b935061198b60e08b01611871565b92506101008a013591506119a26101208b01611871565b90509295985092959850929598565b6000602082840312156119c357600080fd5b5035919050565b6000602082840312156119dc57600080fd5b5051919050565b600080604083850312156119f657600080fd5b823591506020830135611a0881611ec8565b809150509250929050565b60008060408385031215611a2657600080fd5b50508035926020909101359150565b600080600060608486031215611a4a57600080fd5b505081359360208301359350604090920135919050565b80516001600160a01b03168252602081015160028110611a9157634e487b7160e01b600052602160045260246000fd5b806020840152505050565b60008251611aae818460208701611e18565b9190910192915050565b6020808252825182820181905260009190848201906040850190845b81811015611af95783516001600160a01b031683529284019291840191600101611ad4565b50909695505050505050565b602080825282518282018190526000919060409081850190868401855b82811015611b5057815180516001600160a01b03168552860151868501529284019290850190600101611b22565b5091979650505050505050565b6001600160e01b031991909116815260200190565b6020815260008251806020840152611b91816040850160208701611e18565b601f01601f19169190910160400192915050565b60208082526023908201527f4d757374206265206d6f7265206f7220657175616c20746f2073616c6520707260408201526269636560e81b606082015260800190565b6020808252601d908201527f41756374696f6e20686173206e6f74206265656e20617070726f766564000000604082015260600190565b602080825260159082015274105d58dd1a5bdb88191bd95cdb89dd08195e1a5cdd605a1b604082015260600190565b6020808252601b908201527f41756374696f6e20686173206e6f742073746172746564207965740000000000604082015260600190565b60208082526008908201526714dbdb19081bdd5d60c21b604082015260600190565b6101c08101611cb6828f611a61565b604082018d9052606082018c9052608082018b905260a082018a905260ff891660c08301526001600160a01b03881660e0830152865161010083015260208701516101208301528515156101408301526001600160a01b03851661016083015283610180830152611d336101a08301846001600160a01b03169052565b9d9c50505050505050505050505050565b8b81526001600160a01b038b81166020830152610180820190611d6a604084018d611a61565b8a60808401528960a08401528860c08401528760e084015260ff871661010084015280861661012084015284610140840152808416610160840152509c9b505050505050505050505050565b60008219821115611dc957611dc9611e58565b500190565b600082611ddd57611ddd611e6e565b500490565b6000816000190483118215151615611dfc57611dfc611e58565b500290565b600082821015611e1357611e13611e58565b500390565b60005b83811015611e33578181015183820152602001611e1b565b838111156115f15750506000910152565b600082611e5357611e53611e6e565b500690565b634e487b7160e01b600052601160045260246000fd5b634e487b7160e01b600052601260045260246000fd5b634e487b7160e01b600052602160045260246000fd5b634e487b7160e01b600052603260045260246000fd5b6001600160a01b0381168114611ec557600080fd5b50565b8015158114611ec557600080fdfea26469706673582212205e34d8d3e30e96a164c7efd2c239685b2da0161c1a3cc8ab483edff5715abdf764736f6c63430008060033",
  "devdoc": {
    "kind": "dev",
    "methods": {
      "createAuction((address,uint8),uint256,uint256,uint256,uint256,uint8,address,uint256,address)": {
        "details": "Store the auction details in the auctions mapping and emit an AuctionCreated event. If there is no curator, or if the curator is the auction creator, automatically approve the auction and emit an AuctionApproved event.",
        "params": {
          "curator": "the address of the allocated curator",
          "curatorRoyaltyBPS": "the royalty the curator will recieve per purchase in basis points",
          "duration": "the duration the auction will run for",
          "edition": "the contract address and implementation of which NFT's will be minted",
          "endPrice": "the price in eth the auction will end at",
          "numberOfPriceDrops": "the number of times the price will drop between starting and ending price",
          "startPrice": "the price in eth the auction will start at",
          "startTimestamp": "the time the auction will start"
        },
        "returns": {
          "_0": "auction id"
        }
      },
      "getSalePrice(uint256)": {
        "details": "calculates the price based on the block.timestamp",
        "params": {
          "auctionId": "the id of the auction"
        },
        "returns": {
          "_0": "price in wei"
        }
      },
      "purchase(uint256,uint256)": {
        "details": "mints a NFT and splits purchase fee between creator and curator",
        "params": {
          "auctionId": "the id of the auction",
          "value": "the amount paid in erc-20 tokens to mint"
        },
        "returns": {
          "_0": "id of the NFT"
        }
      },
      "purchase(uint256,uint256,uint256)": {
        "details": "mints a seeded NFT and splits purchase fee between creator and curator",
        "params": {
          "auctionId": "the id of the auction",
          "seed": "the seed of the NFT to mint",
          "value": "the amount paid in erc-20 tokens to mint"
        },
        "returns": {
          "_0": "id of the NFT"
        }
      },
      "setAuctionApproval(uint256,bool)": {
        "details": "sets auction approved to approval and emits an AuctionApprovalUpdated event",
        "params": {
          "approved": "the curators approval decision",
          "auctionId": "the id of the auction"
        }
      }
    },
    "title": "An open dutch auction house, for initial drops of limited edition nft contracts.",
    "version": 1
  },
  "userdoc": {
    "kind": "user",
    "methods": {
      "constructor": {
        "notice": "Constructor"
      },
      "createAuction((address,uint8),uint256,uint256,uint256,uint256,uint8,address,uint256,address)": {
        "notice": "Create an auction."
      },
      "getSalePrice(uint256)": {
        "notice": "gets the current sale price of an auction"
      },
      "setAuctionApproval(uint256,bool)": {
        "notice": "allows curator to approve auction"
      }
    },
    "version": 1
  },
  "storageLayout": {
    "storage": [
      {
        "astId": 10,
        "contract": "contracts/EditionsAuction.sol:EditionsAuction",
        "label": "_status",
        "offset": 0,
        "slot": "0",
        "type": "t_uint256"
      },
      {
        "astId": 1194,
        "contract": "contracts/EditionsAuction.sol:EditionsAuction",
        "label": "minStepTime",
        "offset": 0,
        "slot": "1",
        "type": "t_uint8"
      },
      {
        "astId": 1201,
        "contract": "contracts/EditionsAuction.sol:EditionsAuction",
        "label": "editionsImplentaion_interfaceIds",
        "offset": 0,
        "slot": "2",
        "type": "t_array(t_bytes4)2_storage"
      },
      {
        "astId": 1206,
        "contract": "contracts/EditionsAuction.sol:EditionsAuction",
        "label": "auctions",
        "offset": 0,
        "slot": "3",
        "type": "t_mapping(t_uint256,t_struct(Auction)2123_storage)"
      },
      {
        "astId": 1209,
        "contract": "contracts/EditionsAuction.sol:EditionsAuction",
        "label": "_auctionIdTracker",
        "offset": 0,
        "slot": "4",
        "type": "t_struct(Counter)760_storage"
      }
    ],
    "types": {
      "t_address": {
        "encoding": "inplace",
        "label": "address",
        "numberOfBytes": "20"
      },
      "t_array(t_bytes4)2_storage": {
        "base": "t_bytes4",
        "encoding": "inplace",
        "label": "bytes4[2]",
        "numberOfBytes": "32"
      },
      "t_bool": {
        "encoding": "inplace",
        "label": "bool",
        "numberOfBytes": "1"
      },
      "t_bytes4": {
        "encoding": "inplace",
        "label": "bytes4",
        "numberOfBytes": "4"
      },
      "t_enum(Implementation)2085": {
        "encoding": "inplace",
        "label": "enum Implementation",
        "numberOfBytes": "1"
      },
      "t_mapping(t_uint256,t_struct(Auction)2123_storage)": {
        "encoding": "mapping",
        "key": "t_uint256",
        "label": "mapping(uint256 => struct IEditionsAuction.Auction)",
        "numberOfBytes": "32",
        "value": "t_struct(Auction)2123_storage"
      },
      "t_struct(Auction)2123_storage": {
        "encoding": "inplace",
        "label": "struct IEditionsAuction.Auction",
        "members": [
          {
            "astId": 2099,
            "contract": "contracts/EditionsAuction.sol:EditionsAuction",
            "label": "edition",
            "offset": 0,
            "slot": "0",
            "type": "t_struct(Edition)2091_storage"
          },
          {
            "astId": 2101,
            "contract": "contracts/EditionsAuction.sol:EditionsAuction",
            "label": "startTimestamp",
            "offset": 0,
            "slot": "1",
            "type": "t_uint256"
          },
          {
            "astId": 2103,
            "contract": "contracts/EditionsAuction.sol:EditionsAuction",
            "label": "duration",
            "offset": 0,
            "slot": "2",
            "type": "t_uint256"
          },
          {
            "astId": 2105,
            "contract": "contracts/EditionsAuction.sol:EditionsAuction",
            "label": "startPrice",
            "offset": 0,
            "slot": "3",
            "type": "t_uint256"
          },
          {
            "astId": 2107,
            "contract": "contracts/EditionsAuction.sol:EditionsAuction",
            "label": "endPrice",
            "offset": 0,
            "slot": "4",
            "type": "t_uint256"
          },
          {
            "astId": 2109,
            "contract": "contracts/EditionsAuction.sol:EditionsAuction",
            "label": "numberOfPriceDrops",
            "offset": 0,
            "slot": "5",
            "type": "t_uint8"
          },
          {
            "astId": 2111,
            "contract": "contracts/EditionsAuction.sol:EditionsAuction",
            "label": "creator",
            "offset": 1,
            "slot": "5",
            "type": "t_address"
          },
          {
            "astId": 2114,
            "contract": "contracts/EditionsAuction.sol:EditionsAuction",
            "label": "step",
            "offset": 0,
            "slot": "6",
            "type": "t_struct(Step)2096_storage"
          },
          {
            "astId": 2116,
            "contract": "contracts/EditionsAuction.sol:EditionsAuction",
            "label": "approved",
            "offset": 0,
            "slot": "8",
            "type": "t_bool"
          },
          {
            "astId": 2118,
            "contract": "contracts/EditionsAuction.sol:EditionsAuction",
            "label": "curator",
            "offset": 1,
            "slot": "8",
            "type": "t_address"
          },
          {
            "astId": 2120,
            "contract": "contracts/EditionsAuction.sol:EditionsAuction",
            "label": "curatorRoyaltyBPS",
            "offset": 0,
            "slot": "9",
            "type": "t_uint256"
          },
          {
            "astId": 2122,
            "contract": "contracts/EditionsAuction.sol:EditionsAuction",
            "label": "auctionCurrency",
            "offset": 0,
            "slot": "10",
            "type": "t_address"
          }
        ],
        "numberOfBytes": "352"
      },
      "t_struct(Counter)760_storage": {
        "encoding": "inplace",
        "label": "struct Counters.Counter",
        "members": [
          {
            "astId": 759,
            "contract": "contracts/EditionsAuction.sol:EditionsAuction",
            "label": "_value",
            "offset": 0,
            "slot": "0",
            "type": "t_uint256"
          }
        ],
        "numberOfBytes": "32"
      },
      "t_struct(Edition)2091_storage": {
        "encoding": "inplace",
        "label": "struct Edition",
        "members": [
          {
            "astId": 2087,
            "contract": "contracts/EditionsAuction.sol:EditionsAuction",
            "label": "id",
            "offset": 0,
            "slot": "0",
            "type": "t_address"
          },
          {
            "astId": 2090,
            "contract": "contracts/EditionsAuction.sol:EditionsAuction",
            "label": "implementation",
            "offset": 20,
            "slot": "0",
            "type": "t_enum(Implementation)2085"
          }
        ],
        "numberOfBytes": "32"
      },
      "t_struct(Step)2096_storage": {
        "encoding": "inplace",
        "label": "struct Step",
        "members": [
          {
            "astId": 2093,
            "contract": "contracts/EditionsAuction.sol:EditionsAuction",
            "label": "price",
            "offset": 0,
            "slot": "0",
            "type": "t_uint256"
          },
          {
            "astId": 2095,
            "contract": "contracts/EditionsAuction.sol:EditionsAuction",
            "label": "time",
            "offset": 0,
            "slot": "1",
            "type": "t_uint256"
          }
        ],
        "numberOfBytes": "64"
      },
      "t_uint256": {
        "encoding": "inplace",
        "label": "uint256",
        "numberOfBytes": "32"
      },
      "t_uint8": {
        "encoding": "inplace",
        "label": "uint8",
        "numberOfBytes": "1"
      }
    }
  }
}