{
  "address": "0xF459134c814C0a744A62763BE5A2A1E06b01eb83",
  "abi": [
    {
      "inputs": [
        {
          "internalType": "bytes4",
          "name": "_interface",
          "type": "bytes4"
        }
      ],
      "name": "supportsInterface",
      "outputs": [
        {
          "internalType": "bool",
          "name": "",
          "type": "bool"
        }
      ],
      "stateMutability": "nonpayable",
      "type": "function"
    }
  ],
  "transactionHash": "0x1575d6932f21a26780be5487b73fcfe594003c87ea29b8103c4aeeb1233a9ee9",
  "args": [],
  "solcInputHash": "862c60ce3f955013fa62576060033db1",
  "bytecode": "0x608060405234801561001057600080fd5b5060b78061001f6000396000f3fe6080604052348015600f57600080fd5b506004361060285760003560e01c806301ffc9a714602d575b600080fd5b603e60383660046052565b50600090565b604051901515815260200160405180910390f35b600060208284031215606357600080fd5b81356001600160e01b031981168114607a57600080fd5b939250505056fea2646970667358221220c16c74f3934dfa69553c02962c0c4e37610c4e9fe29d079f1f0691d5cec9f53864736f6c63430008060033",
  "devdoc": {
    "kind": "dev",
    "methods": {},
    "version": 1
  },
  "userdoc": {
    "kind": "user",
    "methods": {},
    "version": 1
  },
  "storageLayout": {
    "storage": [],
    "types": null
  }
}